:100000000C946C000C9494000C9494000C94940048
:100010000C9494000C9494000C9494000C94940010
:100020000C9494000C9494000C9494000C94940000
:100030000C9494000C9494000C9494000C949400F0
:100040000C94D8030C9494000C9448040C9422044F
:100050000C9494000C9494000C9494000C949400D0
:100060000C9494000C94940005A84CCDB2D44EB9D5
:100070003836A9020C50B9918688083CA6AAAA2A4B
:10008000BE000000803F00000008000201000003E5
:100090000407000000000000000000000000250030
:1000A00028002B0000000000240027002A00040480
:1000B0000404040404040202020202020303030310
:1000C00003030102040810204080010204081020EC
:1000D0000102040810208A0611241FBECFEFD8E0C9
:1000E000DEBFCDBF11E0A0E0B1E0E4E6F3E102C085
:1000F00005900D92AA33B107D9F722E0AAE3B1E047
:1001000001C01D92A032B207E1F710E0CCE6D0E0CA
:1001100004C02197FE010E94AA09CB36D107C9F776
:100120000E947A040C94B0090C94000090E0FC0149
:10013000EE53FF4F249182559F4FFC0184918823F9
:1001400099F090E0880F991FFC01EC55FF4FA591A5
:10015000B491FC01E656FF4F859194918FB7F894C6
:10016000EC91E22BEC938FBF089590E0FC01EA57ED
:10017000FF4F2491FC01EE53FF4F3491FC01E255F7
:10018000FF4FE491EE23C9F0222339F0233001F12F
:10019000A8F4213019F1223029F1F0E0EE0FFF1F11
:1001A000E656FF4FA591B4918FB7F894EC91611189
:1001B00026C030953E233C938FBF08952730A9F089
:1001C0002830C9F0243049F7809180008F7D03C02A
:1001D000809180008F7780938000DFCF84B58F7708
:1001E00084BDDBCF84B58F7DFBCF8091B0008F774E
:1001F0008093B000D2CF8091B0008F7DF9CF3E2B9D
:10020000DACF3FB7F89480917F0190918001A0915F
:100210008101B091820126B5A89B05C02F3F19F03E
:100220000196A11DB11D3FBFBA2FA92F982F882776
:10023000BC01CD01620F711D811D911D42E0660F51
:10024000771F881F991F4A95D1F70895AF92BF92E3
:10025000CF92DF92EF92FF920F931F93CF93DF9392
:100260006C017B018B01040F151FEB015E01AE18C1
:10027000BF08C017D10759F06991D601ED91FC91E3
:100280000190F081E02DC6010995892B79F7C50110
:10029000DF91CF911F910F91FF90EF90DF90CF9062
:1002A000BF90AF900895FC01538D448D252F30E011
:1002B000842F90E0821B930B541710F0CF96089573
:1002C00001970895FC01918D828D981761F0A28DA0
:1002D000AE0FBF2FB11D5D968C91928D9F5F9F7366
:1002E000928F90E008958FEF9FEF0895FC01918D1C
:1002F000828D981731F0828DE80FF11D858D90E089
:1003000008958FEF9FEF0895FC01918D228D892F25
:1003100090E0805C9F4F821B91098F73992708950D
:1003200083E891E00E94840121E0892B09F420E018
:10033000822F089580E090E0892B29F00E9490019F
:1003400081110C9400000895FC01A48DA80FB92F11
:10035000B11DA35ABF4F2C91848D90E001968F73ED
:100360009927848FA689B7892C93A089B1898C910C
:10037000837080648C93938D848D981306C002885B
:10038000F389E02D80818F7D80830895EF92FF9225
:100390000F931F93CF93DF93EC0181E0888F9B8DA8
:1003A0008C8D98131AC0E889F989808185FF15C062
:1003B0009FB7F894EE89FF896083E889F989808185
:1003C0008370806480839FBF81E090E0DF91CF9154
:1003D0001F910F91FF90EF900895F62E0B8D10E076
:1003E0000F5F1F4F0F731127E02E8C8D8E110CC0E5
:1003F0000FB607FCFACFE889F989808185FFF5CF30
:10040000CE010E94A401F1CFEB8DEC0FFD2FF11D69
:10041000E35AFF4FF0829FB7F8940B8FEA89FB896C
:1004200080818062CFCFCF93DF93EC01888D8823CA
:10043000B9F0AA89BB89E889F9898C9185FD03C047
:10044000808186FD0DC00FB607FCF7CF8C9185FF2C
:10045000F2CF808185FFEDCFCE010E94A401E9CFCC
:10046000DF91CF910895EF92FF920F931F93CF9357
:10047000DF937C01EB01FC0100811181802F0E9440
:10048000960060E0209721F0CF3FD105A1F461E014
:10049000802F0E94B50061E0F70182810E94B500C3
:1004A00060E0F7018481DF91CF911F910F91FF9060
:1004B000EF900C94B500F801FF27EA57FF4FE49145
:1004C000E33079F160F4E130D1F0E23029F1C03865
:1004D000D105ECF660E0802F0E94B50014C0E73033
:1004E00051F1E83081F1E43091F780918000806231
:1004F00080938000D0938B00C0938A0004C084B5A1
:10050000806884BDC7BDD7FFC6CF60E0F701828198
:100510000E94B50061E0C5CF84B5806284BDC8BDCE
:10052000F2CF80918000806880938000D093890012
:10053000C0938800E8CF8091B00080688093B000BD
:10054000C093B300E0CF8091B00080628093B00090
:10055000C093B400D8CFFC0101900020E9F7319797
:10056000AF01481B590BBC0183E891E00C942601B4
:100570008F929F92AF92BF920F931F93CF93DF936F
:10058000CDB7DEB7A1970FB6F894DEBF0FBECDBFD3
:1005900019A2423008F44AE08E010F5D1F4F842EED
:1005A000912CB12CA12CA50194010E948809E62F61
:1005B000B901CA01EA30F4F4E05DD801EE938D018F
:1005C000232B242B252B79F790E080E0109719F04E
:1005D000CD010E94AB02A1960FB6F894DEBF0FBE0C
:1005E000CDBFDF91CF911F910F91BF90AF909F90A2
:1005F0008F900895E95CE1CF4F925F926F927F9266
:100600008F929F92AF92BF92CF92DF92EF92FF9222
:100610000F931F93CF936B017C01742EAC019B0150
:100620000E943A09882399F082E191E0CF911F91CD
:100630000F91FF90EF90DF90CF90BF90AF909F9081
:100640008F907F906F905F904F900C94AB0246011B
:100650005701E894B7F82FEF3FEF4FE75FE7C50189
:10066000B4010E943A0981110DC02FEF3FEF4FE70F
:100670005FE7C501B4010E94240718161CF486E147
:1006800091E0D4CF2FEF3FEF4FE75FE4C701B60112
:100690000E94C00818161CF48AE191E0C7CF2FEF22
:1006A0003FEF4FE75FECC701B6010E94240787FDCB
:1006B000F3CF20E030E0A901C701B6010E94240772
:1006C00010E000E087FF0AC06DE283E891E00E943D
:1006D000C6018C01F7FAF094F7F8F094C0E060E0FE
:1006E00070E080E09FE37C1641F020E030E040E2E3
:1006F00051E40E942E07CF5FF6CFA70196010E941A
:10070000B8062B013C010E94A0074B015C014AE0A6
:100710000E94B8027C01E00EF11ECC23C1F1C5019C
:10072000B4010E94CF079B01AC01C301B2010E943A
:10073000B7064B015C016EE283E891E00E94C601BE
:10074000E80EF91EC15018F120E030E040E251E41B
:10075000C501B4010E94C5082B013C010E94A007FD
:100760004B01B12CA12C4AE0C501B4010E94B80292
:10077000E80EF91EC501B4010E94CF079B01AC0130
:10078000C301B2010E94B7064B015C01DBCFC70178
:10079000CF911F910F91FF90EF90DF90CF90BF907E
:1007A000AF909F908F907F906F905F904F90089543
:1007B0001F920F920FB60F9211242F933F938F9396
:1007C0009F93AF93BF9380917B0190917C01A09107
:1007D0007D01B0917E0130917A0123E0230F2D3706
:1007E00058F50196A11DB11D20937A0180937B01DC
:1007F00090937C01A0937D01B0937E0180917F0155
:1008000090918001A0918101B09182010196A11D7A
:10081000B11D80937F0190938001A0938101B093DB
:100820008201BF91AF919F918F913F912F910F9036
:100830000FBE0F901F90189526E8230F0296A11D5A
:10084000B11DD2CF1F920F920FB60F9211242F938A
:100850003F934F935F936F937F938F939F93AF9348
:10086000BF93EF93FF9383E891E00E94A401FF916F
:10087000EF91BF91AF919F918F917F916F915F9118
:100880004F913F912F910F900FBE0F901F90189591
:100890001F920F920FB60F9211242F938F939F9355
:1008A000EF93FF93E0919301F09194018081E091A7
:1008B0009901F0919A0182FD1BC0908180919C0169
:1008C0008F5F8F7320919D01821741F0E0919C0111
:1008D000F0E0ED57FE4F958F80939C01FF91EF91D3
:1008E0009F918F912F910F900FBE0F901F90189591
:1008F0008081F4CF789484B5826084BD84B58160B2
:1009000084BD85B5826085BD85B5816085BD8091DA
:100910006E00816080936E00109281008091810052
:10092000826080938100809181008160809381004A
:10093000809180008160809380008091B10084600C
:100940008093B1008091B00081608093B00080916D
:100950007A00846080937A0080917A00826080932C
:100960007A0080917A00816080937A0080917A0089
:10097000806880937A001092C100E0919301F09119
:10098000940182E08083E0918F01F09190011082C8
:10099000E0919101F09192018FEC808310929B0184
:1009A000E0919701F091980186E08083E0919501B4
:1009B000F0919601808180618083E0919501F091B2
:1009C0009601808188608083E0919501F091960185
:1009D000808180688083E0919501F091960180810B
:1009E0008F7D80838EE191E00E94AB028AE291E0EC
:1009F0000E94AB0288E3EAE3F1E0DF011D928A95F1
:100A0000E9F710924D0110924C0183E090E0909331
:100A100047018093460185E090E0909349018093DF
:100A2000480186E090E090934B0180934A0183E077
:100A30000E949600809148010E94960080914A0190
:100A40000E949600109255011092540189E090E0A6
:100A500090934F0180934E018AE090E09093510172
:100A6000809350018BE090E090935301809352016A
:100A700089E00E949600809150010E94960080912A
:100A800052010E94960010926B0110926A0110921E
:100A90006D0110926C018FEF90E09093670180934D
:100AA000660190936901809368018DE291E00E9454
:100AB000AB028AE291E00E94AB022FB7F8948091DA
:100AC0007B0190917C01A0917D01B0917E012FBFAF
:100AD0008093720190937301A0937401B093750198
:100AE000C0E0D0E02FB7F89480917B0190917C0119
:100AF000A0917D01B0917E012FBF809376019093EC
:100B00007701A0937801B0937901409172015091DF
:100B100073016091740170917501841B950BA60B94
:100B2000B70B80319742A105B10508F0A2C06091D2
:100B300066017091670186E491E00E943302609142
:100B40006601709167018EE491E00E94330280910A
:100B500066019091670190936B0180936A011092F6
:100B60006D0110926C0160913A0170913B0180918E
:100B70003C0190913D0142E00E94FC0288E391E03B
:100B80000E94AB0260913E0170913F018091400153
:100B90009091410142E00E94FC028AE291E00E94B1
:100BA000AB028091760190917701A0917801B0918C
:100BB000790180936E0190936F01A0937001B093BF
:100BC000710180916A0190916B01181619060CF061
:100BD0007FC06091660170916701072E000C880B41
:100BE000990B0E94D1076B017C018090420190908B
:100BF0004301A0904401B0904501C501B4010E9499
:100C000029079B01AC01C701B6010E94C5089B01E1
:100C1000AC0160913A0170913B0180913C0190914F
:100C20003D010E94B80660933A0170933B018093A6
:100C30003C0190933D01C501B4010E9432099B0122
:100C4000AC01C701B6010E94C5089B01AC016091CF
:100C50003E0170913F0180914001909141010E94BD
:100C6000B80660933E0170933F01809340019093DA
:100C700041010E9401014B015C0188ECC82ED12C7E
:100C8000E12CF12C0E940101681979098A099B095C
:100C9000683E734081059105A8F381E0C81AD10828
:100CA000E108F108A8EE8A0EA3E09A1EA11CB11C6F
:100CB000C114D104E104F10429F7209709F412CFFB
:100CC0000E949001882309F40DCF0E9400000ACFF2
:100CD00060916C0170916D011616170654F6072E7F
:100CE000000C880B990B0E94D1079B01AC0160910D
:100CF00042017091430180914401909145010E940D
:100D0000B80660934201709343018093440190932D
:100D10004501AFCFE3E8F1E01382128288EE93E061
:100D2000A0E0B0E084839583A683B78384E091E05C
:100D30009183808385EC90E09587848784EC90E0B4
:100D40009787868780EC90E0918B808B81EC90E098
:100D5000938B828B82EC90E0958B848B86EC90E079
:100D6000978B868B118E128E138E148E0895505889
:100D7000BB27AA270E94CF060C9472080E9439084C
:100D800038F00E94400820F039F49F3F19F426F40F
:100D90000C9436080EF4E095E7FB0C943008E92F2C
:100DA0000E94970858F3BA176207730784079507DC
:100DB00020F079F4A6F50C94B9080EF4E0950B2E0A
:100DC000BA2FA02D0B01B90190010C01CA01A0019D
:100DD0001124FF27591B99F0593F50F4503E68F1F8
:100DE0001A16F040A22F232F342F4427585FF3CF39
:100DF000469537952795A795F0405395C9F77EF40A
:100E00001F16BA0B620B730B840BBAF09150A1F052
:100E1000FF0FBB1F661F771F881FC2F70EC0BA0FD8
:100E2000621F731F841F48F4879577956795B79560
:100E3000F7959E3F08F0B0CF9395880F08F099275B
:100E4000EE0F9795879508950E940C0808F481E0AD
:100E500008950E944908E3950C9483080E94420774
:100E60000C9472080E94400858F00E94390840F023
:100E700029F45F3F29F00C94300851110C94BA0802
:100E80000C9436080E94970868F39923B1F3552310
:100E900091F3951B550BBB27AA276217730784078D
:100EA00038F09F5F5F4F220F331F441FAA1FA9F323
:100EB00035D00E2E3AF0E0E832D091505040E69511
:100EC000001CCAF72BD0FE2F29D0660F771F881F72
:100ED000BB1F261737074807AB07B0E809F0BB0B65
:100EE000802DBF01FF2793585F4F3AF09E3F510579
:100EF00078F00C9430080C94BA085F3FE4F3983E05
:100F0000D4F3869577956795B795F7959F5FC9F761
:100F1000880F911D9695879597F90895E1E0660FE2
:100F2000771F881FBB1F621773078407BA0720F05B
:100F3000621B730B840BBA0BEE1F88F7E0950895C4
:100F40000E949F0888F09F5798F0B92F9927B751B2
:100F5000B0F0E1F0660F771F881F991F1AF0BA955D
:100F6000C9F714C0B13091F00E94B908B1E00895FA
:100F70000C94B908672F782F8827B85F39F0B93FEC
:100F8000CCF3869577956795B395D9F73EF4909510
:100F90008095709561957F4F8F4F9F4F0895E8948E
:100FA00009C097FB3EF490958095709561957F4FB1
:100FB0008F4F9F4F9923A9F0F92F96E9BB2793955F
:100FC000F695879577956795B795F111F8CFFAF46F
:100FD000BB0F11F460FF1BC06F5F7F4F8F4F9F4FA0
:100FE00016C0882311F096E911C0772321F09EE8FE
:100FF000872F762F05C0662371F096E8862F70E064
:1010000060E02AF09A95660F771F881FDAF7880F3D
:101010009695879597F90895990F0008550FAA0B93
:10102000E0E8FEEF16161706E807F907C0F01216FB
:101030001306E407F50798F0621B730B840B950BFE
:1010400039F40A2661F0232B242B252B21F4089553
:101050000A2609F4A140A6958FEF811D811D0895F0
:1010600097F99F6780E870E060E008959FEF80EC5B
:10107000089500240A9416161706180609060895FE
:1010800000240A94121613061406050608950C94FB
:1010900036080E949F08D8F3E894E0E0BB279F57EA
:1010A000F0F02AED3FE049EC06C0EE0FBB0F661FE3
:1010B000771F881F28F0B23A62077307840728F069
:1010C000B25A620B730B840BE3959A9572F78038D2
:1010D00030F49A95BB0F661F771F881FD2F7904890
:1010E0000C944109092E0394000C11F4882352F04A
:1010F000BB0F40F4BF2B11F460FF04C06F5F7F4F44
:101100008F4F9F4F0895EF93E0FF07C0A2EA2AEDAB
:101110003FE049EC5FEB0E94CF060E9472080F90FF
:10112000039401FC9058E8E6F0E00C944D0957FD5B
:101130009058440F551F59F05F3F71F04795880F45
:1011400097FB991F61F09F3F79F0879508951216DC
:1011500013061406551FF2CF4695F1DF08C0161688
:1011600017061806991FF1CF869571056105089439
:101170000895E894BB2766277727CB0197F9089550
:101180000E940C0808F48FEF08950E94D8080C9470
:1011900072080E94390838F00E94400820F0952318
:1011A00011F00C9430080C94360811240C94BA08F1
:1011B0000E94970870F3959FC1F3950F50E0551F5B
:1011C000629FF001729FBB27F00DB11D639FAA279C
:1011D000F00DB11DAA1F649F6627B00DA11D661FEB
:1011E000829F2227B00DA11D621F739FB00DA11D0C
:1011F000621F839FA00D611D221F749F3327A00DC6
:10120000611D231F849F600D211D822F762F6A2F61
:1012100011249F5750409AF0F1F088234AF0EE0FC6
:10122000FF1FBB1F661F771F881F91505040A9F7F3
:101230009E3F510580F00C9430080C94BA085F3F33
:10124000E4F3983ED4F3869577956795B795F7952F
:10125000E7959F5FC1F7FE2B880F911D96958795A7
:1012600097F908959F930E9449080F9007FCEE5F3D
:101270000C9483080E940C08880B990B08959F3FDB
:1012800031F0915020F4879577956795B795880F41
:10129000911D9695879597F908959F938F937F93C6
:1012A0006F93FF93EF939B01AC010E94C508EF91F0
:1012B000FF910E9461092F913F914F915F910C9492
:1012C000C508DF93CF931F930F93FF92EF92DF92A6
:1012D0007B018C01689406C0DA2EEF010E94D808C9
:1012E000FE01E894A5912591359145915591A6F37C
:1012F000EF010E94CF06FE019701A801DA9469F779
:10130000DF90EF90FF900F911F91CF91DF910895A3
:10131000A1E21A2EAA1BBB1BFD010DC0AA1FBB1FF9
:10132000EE1FFF1FA217B307E407F50720F0A21B6B
:10133000B30BE40BF50B661F771F881F991F1A94D8
:1013400069F760957095809590959B01AC01BD0102
:10135000CF010895EE0FFF1F0590F491E02D099441
:04136000F894FFCF2F
:1013640000000000C601260153011302840162013A
:1013740076016E616E00696E66006F766600537466
:10138400617274205365747570000D0A00446F6EA9
:0A1394006520536574757000200099
:00000001FF
